:020000040800F2
:1000000000800020A9130008A90A0008AB0A000814
:10001000AD0A0008AF0A0008B10A0008000000009D
:10002000000000000000000000000000B30A00080B
:10003000B50A000800000000B70A0008C90A000855
:10004000F9130008F9130008F9130008F913000860
:10005000F9130008F9130008F9130008F913000850
:10006000F9130008F9130008F9130008F913000840
:10007000F9130008F9130008F9130008F913000830
:10008000F913000800000000F9130008B90A00087D
:10009000C50A0008F9130008F9130008F91300084D
:1000A000F9130008F9130008F9130008F913000800
:1000B000F9130008F9130008F9130008F9130008F0
:1000C000F9130008F9130008F9130008F9130008E0
:1000D000F9130008F9130008F9130008F9130008D0
:1000E000F9130008F9130008F9130008F9130008C0
:1000F000F9130008F9130008F913000800000000C4
:1001000000000000F913000800000000F9130008C7
:10011000F913000800000000F9130008F9130008A3
:10012000F9130008F9130008F9130008F91300087F
:10013000F91300080000000000000000F913000897
:10014000F9130008F9130008000000000000000087
:10015000000000000000000000000000000000009F
:10016000000000000000000000000000F91300087B
:10017000F91300080000000000000000000000006B
:1001800000000000F913000800000000000000005B
:10019000000000000000000000000000000000005F
:1001A0000000000000000000F9130008F913000827
:1001B000F9130008F9130008F91300080000000003
:1001C00000000000F913000800000000000000001B
:0801D000F9130008F9130008FF
:1001D80010B5054C237833B9044B13B10448AFF379
:1001E80000800123237010BDD0050020000000000E
:1001F8002C450008084B10B51BB108490848AFF357
:1002080000800848036803B910BD074B002BFBD0DA
:10021800BDE81040184700BF00000000D4050020CA
:100228002C450008D0050020000000000A460146C1
:10023800014801F066B800BF5E2A002010B50446E8
:1002480000F0FAFC2078C0F3C00000F055FD2078DB
:10025800C0F3800000F060FDA07800F027FDE07892
:1002680000F0FEFC23789B0701D500F0ADFC0120CF
:1002780010BD30B58BB004460D4600F09DFC08B9A2
:10028800022129E02422002101A804F087F82B7A12
:10029800980744BF4FF000520392590744BF4FF4E8
:1002A80000120792DA0744BF4FF080420292A17809
:1002B800E278914218BF4FF480124FEA131318BF27
:1002C80006921B046A68019205F10A0101A80493C9
:1002D80000F032FD20B10A21204600F09EFE02E027
:1002E800204600F0B7FE0BB030BD000030B59FB01F
:1002F80000F046F800F0F4FB00F0D8FD00F034FB05
:100308001D481D4C00F052FE002500F005FE00F0CF
:1003180055FD00F0ADFA1948A18800F0F9FA40201F
:10032800A58000F085FD0028EFD00DF1360101A869
:1003380000F070FDD0B9089B0B93019BBDF812200B
:100348000C939DF834300C4862F30713079A62F354
:100358008203029A62F300038DF834300BA94FF040
:1003680000038DF8353000F005FFCEE7092102487B
:1003780000F053FEC9E700BF5E2A0020642A00206F
:10038800F0B5CBB001F05EFD382200212BA804F0B7
:1003980005F81422002106A804F000F844220021E0
:1003A80039A803F0FBFF002002F0F8FE4FF4807339
:1003B8002E93402322272F9301250223042655221A
:1003C8002BA82B97319532933393349635923693E5
:1003D8003793389302F03CFF00B1FEE70F230693F2
:1003E8000890032309900A90082106A8079303F0B0
:1003F80063F900B1FEE74FF44053399346904FF04C
:10040800007339A8459303F041FA044600B1FEE7AA
:10041800014618220BA803F0C1FF4FF000530C93BC
:100428004BF67F330E930BA8202310930F9703F0FE
:100438006BFB224621464FF0FF3001F03DFD2A4B71
:10044800DA6C42F02002DA64DA6C02F020020192DF
:10045800019ADA6C42F00102DA64DA6C02F0010205
:100468000292029ADA6C42F00202DA64DA6C02F062
:1004780002020392039ADA6C42F00402DA64DA6C3C
:1004880002F004020492049ADA6C42F04002DA6440
:10049800DB6C03F0400305933422214611A8059B29
:1004A80003F07CFF11A802F03BF9179B03F4E0630B
:1004B800B3F5806F16D001F06BFF98B901F086FF95
:1004C800014678B934221EA803F068FF4FF4806310
:1004D8001EA824931E96239501F0C2FF01F088FF01
:1004E80001F068FF4BB0F0BD0010024072B6BFF3D8
:1004F8004F8FBFF36F8F704762B6704707B50D4BCC
:1005080002689A4212D103F5DA3314209A6D42F444
:1005180000029A659B6D03F40003019300220221F7
:10052800019B01F0C9FC142001F0FAFC03B05DF84E
:1005380004FB00BF005C004000F50C71D0F87002AD
:1005480001F0F9B900EB4113D0F87002D3F83C215F
:1005580001F01EBA00EB4113D0F87002DA6B01F01B
:1005680051BAD0F8700201F0E6BA8368022B10B5D0
:10057800044600D0FEE70121D0F8700201F0C5FA68
:10058800D4F87002BDE8104001F098BA10B50446DE
:10059800D0F8700201F0BCFAA36923B1024A1369CA
:1005A80043F00603136110BD00ED00E0836923B139
:1005B800044A136923F006031361D0F8700201F0AE
:1005C800B0BA00BF00ED00E070B51E4B05461E48EE
:1005D800C5F8C002082480E8180001260024022378
:1005E800C0F870528360036146618461C46104622B
:1005F80002F0C3F9224621461823D5F8C00202F0BA
:100608009FFD224658238021D5F8C00202F098FDAC
:100618002246C0238121D5F8C00202F091FD22466E
:1006280031464FF48873D5F8C00202F089FD4FF4C3
:10063800807322468221D5F8C00202F081FD20464F
:1006480070BD00BF005C0040502E002008B5D0F8F7
:10065800C00202F0F3F903289ABF024B185C02208B
:1006680008BD00BF7945000810B51C46D0F8C00287
:100678001346224602F00BFA03289ABF014B185C76
:10068800022010BD7945000808B5D0F8C00202F074
:1006980031FA03289ABF024B185C022008BD00BF3C
:1006A8007945000808B5D0F8C00202F0E3FC032839
:1006B8009ABF024B185C022008BD00BF79450008AC
:1006C80008B5D0F8C00202F009FD03289ABF024B12
:1006D800185C022008BD00BF794500080A06D0F85A
:1006E800C03245BF01F07F0103EB411303EB411317
:1006F80093F82A0058BF93F82A01704708B5D0F834
:10070800C00202F0B0F903289ABF024B185C02201D
:1007180008BD00BF7945000808B5D0F8C00202F04E
:1007280033FA03289ABF024B185C022008BD00BFA9
:100738007945000808B5D0F8C00202F004FA032889
:100748009ABF024B185C022008BD00BF794500081B
:10075800D0F8C00202F011BA10B5044611B101294F
:100768000DD010BD836923B10B4A136923F006032A
:100778001361D4F87002BDE8104001F0D2B9D0F886
:10078800700201F0C5F9A36923B1034A136943F064
:100798000603136110BD00BF00ED00E0004870477C
:1007A800EC050020704700207047000070B50D4E22
:1007B8000D4D0E4B0E49002422463046C3F8004822
:1007C800C3F80448C5F82042C5F8244201F0E5FA08
:1007D800D5F82012304605EB811101F0E4FA2046E5
:1007E80070BD00BFC43000208C060020B408002073
:1007F8004C06002021280AD10023C2220B704A701F
:10080800CB7001220B714B7108238A708B71002009
:100818007047000010B5144CD4F82022D4F82402F4
:10082800531C03F0070383420ED1052000F08CFB14
:10083800D4F820120D4804EB811101F0B4FA0B48EA
:1008480001F0CBFA012010BD8032096844F822106B
:100858000648C4F8203204EB831101F0A4FA0348D7
:1008680001F0BBFA002010BD8C060020C430002027
:10087800234BD3F8B8325B6D70B523BB214A224EA7
:10088800D2F80058D2F804181C461046A9429AB269
:100898000ED0425C9A5501330131402BC1F30A0155
:1008A8004FF00104F2D1174AC2F804181A4603E0BF
:1008B8000CB1C0F8041832B11349114801F06DFAAF
:1008C8000F4801F075FA114CFFF710FED4F8240216
:1008D800D4F8203298420ED000F1800304EB801047
:1008E80014F82310FFF7A2FCD4F82432013303F0E4
:1008F8000703C4F82432BDE87040FFF7FDBD00BF10
:10090800C4300020B40800204C0600208C060020CB
:10091800F8B50E460746FFF7E9FD124AD2F8003847
:10092800D2F804189C19C4F30A048C4202D03C463D
:10093800002504E00620BDE8F84000F005BBE11BF7
:100948008E4207D914F8011BD1540133C3F30A03AB
:100958000125F4E70DB1C2F80038BDE8F840FFF70B
:10096800CBBD00BFB408002008B500220B490C48D5
:1009780000F0AEFF00B1FEE70A49094800F0BDFFEC
:1009880000B1FEE70849064801F000FA00B1FEE7A9
:10099800034800F0B9FF00B1FEE708BD10000020D1
:1009A800C4300020B00000200000002012230B807B
:1009B800004870473400002004230B80004870472B
:1009C80030000020002330B51D46DCB2A2420CD90D
:1009D800040F092C94BF3034373401F8134001EB6D
:1009E8004304000165700133EFE730BD1A2310B5E9
:1009F800094A0B80094B10681B6818180AD0084B65
:100A080008491C680822FFF7DDFF04220649204632
:100A1800FFF7D8FF054810BD9875FF1F9075FF1F99
:100A28009475FF1F4A0000205A000020480000204B
:100A380010B5044C04480A46214600F0EBFE204657
:100A480010BD00BF883300207D45000810B5044C58
:100A580004480A46214600F0DDFE204610BD00BFCE
:100A6800883300208C45000810B5044C04480A4619
:100A7800214600F0CFFE204610BD00BF883300207D
:100A8800AA45000810B5044C04480A46214600F05F
:100A9800C1FE204610BD00BF88330020B5450008C0
:100AA8007047FEE7FEE7FEE7FEE7704770477047CE
:100AB800014802F081B800BF502E0020FFF7F8BFB0
:100AC80008B501F0D5F9BDE8084001F04EBA0000BC
:100AD800024B4FF000629A60704700BF00ED00E0E3
:100AE8002F4B2DE9F0419A6D2E4F42F000729A6516
:100AF8009A6D8AB002F000720192019ADA6C42F0A3
:100B08000202DA64DA6C02F002020292029ADA6CE9
:100B180042F00402DA64DA6C02F004020392039AE7
:100B2800DA6C42F00102DA64DB6C03F001030024A2
:100B380001250226049305A94FF09040049B0595D2
:100B480006950796089401F045FE224629464FF07F
:100B5800904001F00DFF4FF4005805A93846CDF834
:100B6800148006950796089401F034FE2A464146FB
:100B7800384601F0FDFE4FF44073059305A909239B
:100B88000948099306960794089401F023FE074B39
:100B9800074A1A60074B1C700AB0BDE8F08100BF15
:100BA800001002400008004800040048BC10002063
:100BB8000064004088350020024B1878431E5842D4
:100BC800584170478835002070B5164E33783BBBC6
:100BD800154C164863604FF44072A260144A0068CE
:100BE80012782274134A60621268626101250E212C
:100BF80002222046E3606374A374E1612262E16229
:100C080022636363A363E363A561A56201F0B2F99C
:100C1800204601F091FA3570BDE8704000F038B90F
:100C280070BD00BF88350020BC10002020110020B6
:100C3800680000202411002010B5074C2378012BF0
:100C480008D1064801F08EFA00232370BDE8104051
:100C580000F025B910BD00BF88350020BC10002069
:100C68000A2820D8DFE800F006090C0E1012141626
:100C7800181A1C004FF47A7213E04FF4FA7210E05D
:100C8800C8220EE064220CE050220AE0282208E084
:100C9800142206E00A2204E0052202E0022200E013
:100CA8000122014B1A607047201100200A2820D821
:100CB800DFE800F006090C0E10121416181A1C00B2
:100CC8004FF47A7213E04FF4FA7210E0C8220EE083
:100CD80064220CE050220AE0282208E0142206E0F0
:100CE8000A2204E0052202E0022200E00122014B70
:100CF8001A60704724110020054B1B78012B05D082
:100D0800044B10B10222DA607047D860704700BF08
:100D180088350020BC100020054B1B78012B05D01E
:100D2800044B10B101221A7070471870704700BF49
:100D380088350020680000202DE9F0411E4E06F598
:100D4800C85741F602123B88B25A013303F03F03F9
:100D580093420546884603D1042000F0F5F828E0C0
:100D6800807B00F0E9F95FFA80FCBCF1400F20D8E5
:100D78000FCDB7F800E0242404FB0E6404F580547A
:100D88000FC40FCD0FC42B68236006EB8E1600230B
:100D9800DAB2944504D918F80320F2540133F7E77E
:100DA8000EF1010E0EF03F0EA7F800E00020BDE89E
:100DB800F0810120BDE8F0812811002070B5124DA6
:100DC80005F5C856114C228833889A421BD0104822
:100DD80001F0D8FAB8B100F03BF822880C48242179
:100DE80001FB025101F5805105EB821201F0EEF989
:100DF8002388013303F03F0323800028E3D0022037
:100E080000F0A2F8DEE770BD281100202A2A002091
:100E1800BC10002038B504460D4600F019F82B46E2
:100E280022464021014801F039FA38BDBC100020A3
:100E380008B5054B187830B14021044801F098FAFC
:100E4800003018BF012008BD88350020BC100020E4
:100E580038B50A4C25687DB901F016F8084B1B68AF
:100E6800C01A192808D92A4601214FF0904001F0EC
:100E78007FFD01F009F8206038BD00BF302A00204E
:100E8800342A0020012211464FF0904001F070BD35
:100E980000224FF400414FF0904001F069BD01225B
:100EA8004FF400414FF0904001F062BD194B30B54E
:100EB800DA6C42F00102DA64DA6C8DB002F00102F9
:100EC8000092009ADA6C42F00202DA64DB6C03F0FA
:100ED800020301930124002502A9019B03944FF406
:100EE80000434FF09040029304940595069501F055
:100EF80071FCFFF7D4FF07A94FF0904007940894BE
:100F080009940A950B9501F065FCFFF7BBFF0DB03E
:100F180030BD00BF0010024010B5094C23686BB10A
:100F280000F0B2FF2368C01A192807D9FFF7AAFFF3
:100F38000023236000F0A8FF024B186010BD00BF1B
:100F4800302A0020342A0020062810B504460ED87E
:100F580000F09AFF064B43F8240000F095FF054B7C
:100F6800054A186013680120A0400343136010BDB0
:100F78003C2A0020382A0020582A002010B50446B0
:100F88004FF6FF700139C9B2FF290ED014F8012BB2
:100F980082EA102383EA13139AB243EA002383EA0E
:100FA800023383EA421398B2ECE710BD002380F8BD
:100FB800F03380F8F13383807047F8B50D46911E01
:100FC8000446C9B228461646FFF7D8FFAB19020AED
:100FD80003F8022C03F8010CA388E21801339BB232
:100FE80000209071A3802344063301218E4201F131
:100FF800010209DB6F1817F8017C5F5417B90F1A43
:101008001F540846D1B2F1E70D1A1D540020585458
:10101800A38853FA82F2A280F8BD07B501230422FF
:101028008DF804308DF8051000230DEB02018DF8C2
:1010380006308DF80730FFF7C0FF03B05DF804FBFA
:1010480083881344B3F5F57F02DD0321FFF7E5BF7D
:10105800FFF7B3BF07B502238DF80430032200233E
:1010680001A98DF805308DF80630FFF7A6FF03B00B
:101078005DF804FB07B5064A034610680190042290
:101088000DEB02011846FFF7DBFF03B05DF804FB28
:101098004445000807B509228DF8002082788DF8AC
:1010A8000120C27843788DF8022002788DF8032059
:1010B8008DF804300722002369468DF805308DF835
:1010C8000630FFF7BDFF03B05DF804FB042A10B536
:1010D800044604D00B21BDE81040FFF79EBF0B78F3
:1010E80083704B78C3708B780370CB784370FFF7AD
:1010F800A5F82046BDE81040FFF7CCBFF0B50D4B72
:101108008FB001AA054603F13007164618685968DA
:10111800144603C40833BB422246F7D11B78237018
:1011280031220A23314628468DF80430FFF788FF1C
:101138000FB0F0BD484500080F289ABF024B18565B
:101148004FF0FF30704700BFD3450008C2B202F02D
:101158000103910744BF43F00203DBB2510748BFC4
:1011680043F00403120748BF43F0080300F0F000FF
:101178001843704770B50B7A1F4A1B0994B00C4688
:10118800D55C002150220646684603F007F923681B
:101198008DF804301A0E8DF801201A0C8DF80220F3
:1011A8001A0A63688DF803201A0E8DF805201A0CA8
:1011B8008DF80620207A8DF808301A0A8DF8072055
:1011C800FFF7C4FF14AB14F8092F03F8462D05F1F7
:1011D8000A028DF809006A44934204D014F8011FEA
:1011E80003F8011FF8E705F10D02D2B2694630464F
:1011F800FFF726FF14B070BDD345000803464FF033
:101208000000C3F3400263F3000062F34100C3F33C
:10121800800262F38200C3F3C00262F3C3001B09B9
:1012280063F307107047000030B5092A95B00446EB
:10123800154601D8042111E0087AFFF7DFFF4B7A41
:101248008DF80C008DF80D30C0F30310144B1B5CA7
:1012580003F10A02954204D005212046FFF7DDFE7E
:101268001BE04A790879120442EA0062C87902430D
:101278008879093342EA002201A8029209310DF166
:101288000D0203449A4204D011F8010F02F8010F2D
:10129800F8E701A92046FEF7ECFF15B030BD00BF06
:1012A800D345000810B40B780A2B04461FD009D880
:1012B800082B1CD01BD8FBB9013AD2B2013110BCA3
:1012C800FFF7B2BF892B0FD004D8882B14D110BCDC
:1012D800FFF7D0BE8A2B0CD0C92B0DD1013AD2B260
:1012E800013110BCFFF7F2BE10BCFFF7D3BE0721D7
:1012F80004E010BCFFF702BF0621204610BCFFF730
:101308008CBE013A2DE9F84381464E1E8F1800F530
:10131800FE754FF00008B74240D016F8012F99F833
:10132800F11399F8F0337AB98B4208D19BB289F856
:10133800F02389F8F123E3B15A1E92B21AE089F832
:10134800F02389F8F12315E0994208D10A44D2B272
:1013580089F8F12332B1294401F8018C02E02B44C9
:1013680003F8012C99F8F033013389F8F03300229F
:1013780000E01A4612F0FF04CDD021462846FFF7B8
:10138800FDFD20B101214846FFF747FEC3E7A21E35
:10139800D2B229464846FFF785FFBCE7BDE8F88387
:1013A8000D4885460D480E490E4A002302E0D458E0
:1013B800C4500433C4188C42F9D30B4A0B4C002395
:1013C80001E013600432A242FBD3FFF781FB02F075
:1013D800BDFFFEF78BFFFEE7008000200000002025
:1013E800D005002004460008D005002090350020D4
:1013F800FEE70B7803704B784370CA788B7803EB61
:10140800022343804A790B7903EB02238380CA794C
:101418008B7903EB0223C380704710B58021044603
:10142800FFF740F920460021BDE81040FFF73AB920
:1014380073B50B7803F06003202B04460D4605D0E6
:10144800402B03D0002B40F0128106E0D4F8B432D0
:1014580029469B68204698471DE14B78092B00F2E6
:101468000481DFE813F0D900F3000201EF00020164
:1014780078000A000201C80096000023ADF8063083
:101488004B881A0A013A0E2A00F2EF80DFE812F0C0
:10149800130017002300ED00ED004B005600ED008F
:1014A800ED00ED00ED00ED00ED00ED000F00D0F8CF
:1014B800B032DB692FE0D0F8B0321B682EE0027C36
:1014C800D0F8B4320AB99B6A00E0DB6A0DF1060075
:1014D800984702233DE0DBB2052B00F2C680DFE827
:1014E80003F003070B0F1317D0F8B0325B6812E054
:1014F800D0F8B0329B680EE0D0F8B032DB680AE072
:10150800D0F8B0321B6906E0D0F8B0325B6902E06F
:10151800D0F8B0329B69002B00F0A7800DF10601CE
:10152800207C9847A6E0037C002B40F09E80D0F8F2
:10153800B4320DF106005B6B98479BE0037C002BEF
:1015480040F09380D0F8B4320DF106001B6B984739
:10155800072343708EE08B88002B40F08680CB8871
:10156800002B40F082804E887F2E7ED890F89C32E7
:10157800032BF1B279D080F89E12FFF7BFF820460E
:1015880000F090F90EB1022300E0012384F89C32A8
:1015980081E08978414E0129317066D890F89C32F3
:1015A800022B02D0032B08D01DE0002959D00121BD
:1015B8000323416080F89C320FE031B9022380F8A0
:1015C8009C32416000F0B0F94BE04168012948D0F5
:1015D800C9B200F0A9F931786160204600F099F9A4
:1015E80002283ED141E02946FFF717FF317820460F
:1015F80000F09AF94FE0CA88012A36D190F89C3257
:101608009BB3022B03D9032B2FD1011D16E00146F2
:10161800002341F8083F11E090F89C32013B022B6F
:1016280023D8CB88022B20D10123C360D0F8A43261
:101638000BB10323C360022204F10C01204600F021
:1016480005F928E04B88012B25D108E090F89C3259
:10165800013B022B09D84B88012B1CD10023C4F86D
:10166800A432204600F01EF915E029462046FFF76F
:10167800D4FE10E0BDF8062052B1EB8843B19A427F
:1016880028BF1A4601462046ADF8062000F0DEF8CD
:10169800EB88002BE5D0002002B070BD5C2A00204A
:1016A80038B50B7803F06003202B04460D4602D0B2
:1016B800402B00D0B3B994F89C32013B022B0FD8D1
:1016C8002B79012B0CD8D4F8B43229469B682046D4
:1016D8009847EB8843B938B9204600F0E3F803E0AF
:1016E80029462046FFF799FE002038BD70B50B78D3
:1016F80003F06003202B04460A4605D0402B03D094
:10170800002B40F0838006E0D4F8B43211469B6881
:10171800204698477CE04E788D88012EEBB215D094
:1017280031D3032E72D190F89C52022D15D0032D7F
:101738006CD1498831B9590604D0D28812B91946F2
:10174800FEF7B0FF204600F0ADF861E090F89C523B
:10175800022D02D0032D0DD058E05E0602D11146AD
:10176800204653E01946FEF79DFF80212046FEF7EC
:1017780099FF4DE04A88002A4AD15D06E2D0194611
:10178800FEF79EFFDEE790F89C62022E02D0032E41
:101798000CD03BE05906E2D12B064CBF00F11401F6
:1017A80000F5AA7100230B6002222BE015F0800FD0
:1017B80003F00F014FF0140505FB010108D08969FA
:1017C8000029CCD003F07F0205FB0205143509E09F
:1017D800D1F858110029C2D003F07F0205FB020599
:1017E80005F5AA7513F07F0201D12A6008E01946B1
:1017F8002046FEF773FF10B101232B6000E028603C
:1018080002222946204600F021F801E0FFF705FEF4
:10181800002070BD30B5C0B105462B1A15F8014B34
:10182800DBB2002CF9D101335B0013800B7003236A
:101838004B700138022310F8015F35B15A1CD2B23F
:10184800CD540233DBB28C54F5E730BD10B51346E6
:101858000222C0F89422C3610A4603620021FEF7FF
:101868005BFF002010BD08B513460A460021FEF7AD
:1018780053FF002008BD10B513460322C0F8942278
:10188800C0F85C310A46C0F860310021FEF752FF0B
:10189800002010BD08B513460A460021FEF74AFF8E
:1018A800002008BD08B50423C0F8943200231A4666
:1018B8001946FEF731FF002008BD08B50523C0F81A
:1018C800943200231A461946FEF734FF002008BD5B
:1018D80008B580B1D0F8B43213B10023C0F8B432DF
:1018E80009B1C0F8B012012380F89C320270FEF7EB
:1018F8006BFE002008BD022008BD19B1C0F8B41263
:10190800002070470220704708B5FEF79FFE0020B0
:1019180008BD08B5D0F8B4320BB9022008BD1B6861
:1019280098470028F9D108BD08B5D0F8B4325B68EB
:101938009847002008BD38B5044600F52A752846A2
:10194800FFF757FD012394F8A812C4F89432B4F8AD
:10195800AE32C4F8983201F01F03012B0CD006D325
:10196800022B0ED129462046FFF7C0FE0EE029467D
:101978002046FFF75DFD09E029462046FFF790FE67
:1019880004E001F080012046FEF78CFE002038BDFF
:1019980070B50546164641BBD0F89432032B1DD1CD
:1019A800D0F86021D0F864319A420AD9D21A934209
:1019B800C0F8602131468CBF92B29AB2FFF76AFF35
:1019C8001CE0D0F8B4321B6923B190F89C22032A9A
:1019D80000D198472846FFF765FF0FE0052B0DD18A
:1019E800C5F89412FEF75EFE08E0D0F8B4329B69A1
:1019F80033B190F89C22032A02D19847002070BD89
:101A0800022070BD70B5134604460E46002948D121
:101A1800D0F89422022A35D1056A426A954207D93C
:101A2800AA1A0262194692B2FFF71DFF334611E067
:101A3800C369B3FBF2F502FB15358DB99A420FD88D
:101A4800D0F8982293420BD22A46FFF70CFFC4F82D
:101A580098522B461A4619462046FEF76BFE17E0A9
:101A6800D4F8B432DB682BB194F89C22032A01D154
:101A78002046984780212046FEF714FE2046FFF7AF
:101A88001CFF05E032F0040302D18021FEF70AFEB4
:101A980094F8A032012B4FF000000ED184F8A00278
:101AA80070BDD0F8B4325B6933B190F89C22032A38
:101AB80002D19847002070BD022070BD70B5002289
:101AC80004461146012540264023FEF7CDFD334646
:101AD8008021C4F85851C4F8646100222046FEF7FA
:101AE800C3FDD4F8B832A5610021666284F89C521F
:101AF800C4F894126160C4F8A41223B1D4F8B432C3
:101B080020465B689847002070BD0174002070472C
:101B180090F89C3280F89D32042380F89C32002093
:101B2800704790F89C32042B04BF90F89D3280F8DF
:101B38009C320020704708B590F89C22032A04D1F3
:101B4800D0F8B432DB6903B19847002008BDD0F85B
:101B5800BC3210B5D0F8B8425BB194F84000FF2809
:101B680007D09B6894F8412021469847FF2384F8C2
:101B78004030002010BD0000432303800048704718
:101B88006C00002043230380004870473801002080
:101B98004323038000487047F40000200A23038091
:101BA80000487047E800002038B50546D0F8B8422C
:101BB800FEF7CEFDD5F8B832E06443B1D5F8BC32B3
:101BC800606CDB6804F14C019847002038BD0220A6
:101BD80038BDF8B5D0F8B862C6B1142202FB0102CC
:101BE800D46984B1D0F8C03203EB41139D6BB4FBC8
:101BF800F5F305FB134434B9D46123462246FEF7B6
:101C08008BFD2046F8BD00207065F8BD0220F8BDA8
:101C18002DE9F7430A78D0F8B8724FF0000812F0AF
:101C2800600405460E468DF80580ADF8068026D07E
:101C3800202C47D1CC884B78D4B112060DD5D0F8DA
:101C4800BC223946D2F8089018462246C847F2887E
:101C580039462846FFF7FAFD08E087F84030CB8878
:101C680087F84130CA883946FFF705FE40462CE020
:101C7800D0F8BC22184695682246A84720E04F783D
:101C88000A2F14D00B2F0BD0E7B990F89C32032BF6
:101C98000AD102220DF10601FFF7D8FD384614E0FB
:101CA80090F89C32032B0BD0314628460AE090F876
:101CB8009C32032BF8D101220DF10501FFF7C6FD77
:101CC800204602E0FFF7A9FB022003B0BDE8F0833D
:101CD80038B5044600258121FEF7D6FC0121E562CE
:101CE8002046FEF7D1FCC4F86C5182212046FEF74D
:101CF800CBFCD4F8B83225644BB1D4F8BC325B685D
:101D08009847D4F8B802FEF74DFDC4F8B852002041
:101D180038BD2DE9F04105460124402302228121E6
:101D2800FEF7A2FC402302222146EC622846FEF779
:101D38009BFC082303228221C5F86C412846FEF744
:101D480093FC2C645C20FEF729FD0646C5F8B80212
:101D5800C8B1D5F8BC321B68984795F81080726CEA
:101D6800002777654023B76521462846B8F1000F5C
:101D780004D1FEF7DFFC4046BDE8F081FEF7DAFC4F
:101D88003846BDE8F0812046BDE8F08119B1C0F8B9
:101D9800BC120020704702207047D0F8B8320020EB
:101DA80099641A657047D0F8B832002059647047B2
:101DB800D0F8B82210B562B1546D01235CB95365EF
:101DC800136D0363926C9BB28121FEF7A5FC20463C
:101DD80010BD022010BD184610BDD0F8B82210B5AD
:101DE80032B14023526C0121FEF7A4FC002010BD43
:101DF800022010BD7047000038B50F4B0546186823
:101E080008B9012038BD0D4A4FF47A73B3FBF0F3DB
:101E18001068B0FBF3F000F091F804460028F0D108
:101E28000F2DEED8024629464FF0FF3000F044F857
:101E3800034B20461D6038BD80010020640000204F
:101E48007C010020094A136823F4806310B503203D
:101E5800136000F01FF80020FFF7CEFF044618B902
:101E6800FFF7C8FF204610BD012010BD002002402A
:101E7800034A044B11681B680B441360704700BF8A
:101E88008C35002080010020014B1868704700BF86
:101E98008C350020074AD36823F4E0631B041B0C2D
:101EA80043F0BF63000243F4003300F4E0600343EF
:101EB800D360704700ED00E0174BDB68C3F30223E3
:101EC80030B5C3F107041D1D042C28BF0424062DBA
:101ED8004FF0010505FA04F404F1FF348CBF033B0D
:101EE80000230C409C4005FA03F3013B1A400028EC
:101EF80042EA04024FEA0212ADBF00F1604000F06E
:101F08000F00064B00F56140B5BFD2B2D2B21A54E9
:101F180080F8002330BD00BF00ED00E014ED00E0C4
:101F2800002808DB4209012300F01F0003FA00F033
:101F3800014B43F82200704700E100E00138B0F19E
:101F4800807F0AD2064B074A5860F02182F8231096
:101F58000020072298601A6070470120704700BF70
:101F680010E000E000ED00E0704708B5FFF7FCFF67
:101F780008BD704738B50446002800F0D38090F8B3
:101F88005C3003F0FF021BB980F85D20FFF7F1FF1A
:101F98002268936923F010039361FFF775FF0546E4
:101FA80023689A69110705D5FFF76EFF401B0A28B9
:101FB800F6D90FE09A6942F001029A61FFF764FFCF
:101FC800054623689A69D2070CD4FFF75DFF401BCA
:101FD8000A28F6D9236E43F001032366032384F805
:101FE8005C309FE09A6942F002029A614E4A93423D
:101FF80004BF6168C2F80011227C012A9A690CBFEB
:1020080022F0400242F040029A61627C012A9A69F9
:102018000CBF42F4804222F480429A61A27C012AD9
:102028009A690CBF22F4805242F480529A619A69EC
:10203800A56822F440722A439A619A6922F0A402A0
:102048009A611A6922F010021A61E268012A03D122
:102058009A6942F004020FE07AB1022A09D099691C
:1020680041F0800199611969032A41F01001196151
:1020780003D19A6942F020029A61E069A169226A53
:10208800013801390002013A40EA416111436269AD
:10209800013A41EA0242B5F5407FDA610ED1206B80
:1020A800E16AA26A013801390001013A40EA0121D6
:1020B8001143626A013A41EA0242DA60D3F8C01079
:1020C800E26B606B0A43C3F8C020D3F88010174A4C
:1020D800226421F4F81141EA0041C3F88010144940
:1020E8006164D3F88010A06B21F0706141EA00614F
:1020F800C3F880100F4BA364D833E364D833236547
:10210800183363650021134602F5547243F8041B23
:1021180093424FF00000F9D101232066A06584F8AE
:102128005C3038BD012038BD0064004000A4004088
:1021380070A40040B0A4004090F85C30012B0BD193
:102148000268022380F85C30936923F001039361ED
:102158000023036618467047036E43F004030366C2
:102168000120704790F85C30022B28D102689369EF
:1021780043F0010393610C239169C90702D4013B21
:10218800FAD10AE0936923F0100393610C21936953
:1021980013F0080309D00139F9D1036E43F00103A4
:1021A8000366032380F85C300DE0916941F0020179
:1021B80091610122836580F85C2018467047036EA0
:1021C80043F00803036601207047000090F85C3074
:1021D800022B2DE9F041904656D10768D7F8C43054
:1021E8009B0203D5036E43F4007350E0D7F8C46034
:1021F8000D698B684A680C68C6F301462B4312B90F
:1022080043EA844302E043F0804323438C69CD6969
:10221800D0F854C025434C692543CC682C430D6A3B
:1022280044EA05644825754305EB0C0E45F80C3067
:102238000EF10803DFF860C0CEF8044008F103028D
:102248009E46CD891CF80550C3EB0E04AC4202F142
:10225800040210D212F8054C12F8045C240444EA73
:10226800056412F8075C2C4312F8065C44EA05245E
:102278004EF8044BE5E7012303FA06F6C7F8CC60ED
:1022880086650020BDE8F081036E43F0080303660D
:102298000120BDE8F08100BFE3450008F0B590F8E3
:1022A8005C40022C5BD14029046809D1D4F89050D5
:1022B8002E0709D0D4F89050846CC5F301250CE0A2
:1022C800D4F898502D0703D1036E43F4807349E086
:1022D800D4F89850C46CC5F30125482606FB05447C
:1022E800276807F080475760266817B9C6F38A46FB
:1022F80001E026F0604616602668DFF870E006F018
:1023080000569660266806F000461661A688D661D3
:10231800666806F47026D660666806F4801656610C
:10232800666806F400169661E67906F07F0616627E
:102338006668F60F566208340026D7891EF80770BB
:10234800BE4203D2A75D9F550136F6E703684029D0
:102358000CBFC3F89450C3F89C500020F0BD036E26
:1023680043F0080303660120F0BD00BFE345000801
:10237800036840290CBFD3F89000D3F8980000F008
:102388000F0070470368D3F8C40000F007007047D7
:10239800064B5A69002ABFBF054A9A6002F1883283
:1023A8009A60BABF5869C00F0020704700200240E9
:1023B80023016745044B5A6942F000425A61586943
:1023C800C043C00F704700BF00200240064B586949
:1023D80010F0804007D0054ADA6002F14432DA6032
:1023E8005869C0F380707047002002403B2A1908E2
:1023F800054B5A6942F080425A61586980F0804022
:10240800C0F38070704700BF0020024070B50646D8
:10241800FFF73AFD104C054623690F4ADB0306D542
:10242800FFF732FD401BB042F6D9032070BD136997
:102438004CF2FA30184030B108494B6803434B60FE
:102448001061012070BD136913F0010302D001234C
:10245800136170BD184670BD002002408401002041
:102468002DE9F843AC4F3B78012B044600F051812D
:1024780000680126002330403E707B6023D04FF473
:102488007A70D4F80490A568D4F80C80FFF7BEFFE2
:10249800D0B9A24BB9F1000F03D145EA0845DD6276
:1024A80005E0B9F1010F04BF45EA08451D635A6903
:1024B80042F400325A614FF47A70FFF7A7FF061C06
:1024C80018BF012600E0064623689B0715D54FF480
:1024D8007A702569FFF79AFF70B9904B1A6A22F053
:1024E800FF0215431D625A6942F400325A614FF4E3
:1024F8007A70FFF78BFF00B1012623685D0740F172
:1025080094804FF47A70D4F81480A569FFF77EFFA1
:10251800002840F0898018F001031ABF05F4E06232
:102528004FF4E0631A4618F0020F1EBF05F48051FD
:102538000A4343F4805318F0040F1EBF05F40051FA
:102548000A4343F4005318F4805F1EBF05F480412A
:102558000A4343F4804318F0080F1EBF05F4803186
:102568000A4343F4803318F0100F1EBF05F40031FE
:102578000A4343F4003318F0200F1EBF05F48021EE
:102588000A4343F4802318F0400F1EBF05F40021CE
:102598000A4343F4002318F4007F1EBF05F400012A
:1025A8000A4343F4000318F4806F1EBF05F08071DE
:1025B8000A4343F0807318F4006F1EBF05F00071E2
:1025C8000A4343F0007318F4005F1EBF05F08061F2
:1025D8000A4343F0806318F4804F1EBF05F0006182
:1025E8000A4343F0006318F4004F1CBF05F0405144
:1025F8000A434A4918BF43F04053086A18F4803F19
:102608001CBF05F0804543F0804320EA030318BF50
:102618002A431A430A624B6943F400334B614FF46F
:102628007A70FFF7F3FE00B101262368180734D546
:10263800D4F82090D4F82480C1452ED04FF47A7075
:10264800E569FFF7E3FE38BBE90714D53348416A6B
:1026580021F47F5209F1784922F03F0242EAD90277
:102668004262826A22F47F5308F1784823F03F03DC
:1026780043EAD8038362294B9A6A05F0004522F0A1
:10268800004215439D625A6942F400325A614FF480
:102698007A70FFF7BBFE00B1012623689A061AD5A7
:1026A8004FF47A70D4F82C80256BFFF7AFFE88B909
:1026B8001A4BB8F1010F01BF1A6F22F07F021543C0
:1026C8001D675A6942F400325A614FF47A70FFF775
:1026D8009DFE00B101262368DB0615D54FF47A70FC
:1026E800A46AFFF793FE70B90C4B1A6F22F480327C
:1026F80014431C675A6942F400325A614FF47A70E5
:10270800FFF784FE00B1012600233B703046BDE888
:10271800F8830220BDE8F8838401002000200240ED
:1027280042680623012A036011D807230360274B58
:102738002AB9DA6A02F03F028260DB6A04E01A6BA7
:1027480002F03F0282601B6BC3F30543C3601F4A5C
:10275800136ADBB2AA2B03D0CC2B14BFBB23CC2328
:102768000361136A194923F0FF038361C369012BCD
:1027780017D1036843F0080303604A6A144BD20078
:10278800134003F1006303628A6A114BD2001340BD
:1027980003F1006343628B6A03F0004343F00103D3
:1027A800C3610368094943F0100202600A6F02F42A
:1027B80080328262C26A012A06D143F03003036084
:1027C8000B6F03F07F030363704700BF00200240D4
:1027D800F8FF01002DE9F04FDFF88C810B68DFF876
:1027E8008CC185B0444601930023019ADA4000F079
:1027F800B580012202FA03F9019A12EA090600F0EB
:10280800AB804A6822F0100EBEF1020F14D14FEAD5
:10281800D30A00EB8A0A03F0070BDAF820704FEAB4
:102828008B0B0F2505FA0BF527EA05050F6907FA43
:102838000BF72F43CAF820704FEA430A03250768AD
:1028480005FA0AF5ED4302F0030B2F400BFA0AFBD9
:102858000EF1FF3E4BEA0707BEF1010F076011D8E2
:10286800876805EA070ECF6807FA0AF747EA0E07EE
:102878008760476827EA0909C2F300179F4047EABB
:1028880009074760C7683D408F6807FA0AF73D4364
:10289800C560D50060D5DCF8605045F00105CCF87E
:1028A8006050DCF8605023F0030E0EF1804E05F006
:1028B80001050EF5803E039503F00309039DDEF83C
:1028C80008704FEA89090F2505FA09F5B0F1904F0C
:1028D80027EA050715D0234DA84214D005F58065D1
:1028E800A84212D005F58065A84210D005F580658C
:1028F800A8420ED005F58065A84214BF0625052517
:1029080008E0002506E0012504E0022502E0032591
:1029180000E0042505FA09F53D43CEF80850D8F83B
:102928000050F74312F4803F0CBF3D40354325600B
:10293800656812F4003F0CBF3D4035436560A568EB
:1029480012F4801F0CBF3D403543A560E568920234
:1029580054BF3D403543E560013346E705B0BDE867
:10296800F08F00BF0004004800040140001002403E
:102978000AB1816170478162704770B5044686B0BC
:10298800002856D090F8293203F0FF021BB980F8CE
:102998002822FDF7B3FD032384F82932206801F0CB
:1029A800E4F80022606801261546D3B2984202F185
:1029B80001020ED904EB431181F82830CB8602338B
:1029C8005B0181F8296081F82B508D63CD63E55058
:1029D800EBE700221146D3B2984202F101020FD967
:1029E80004EB431585F828310A335B0185F8291172
:1029F80085F82B11C5F83811C5F83C11E150EAE704
:102A080004F110060FCE6D460FC533682B60231DE9
:102A18000ECB206801F0B3F80025012384F8245078
:102A280084F82932E369012B05D1204600F0A0FB88
:102A380001E0012000E0284606B070BD90F8283279
:102A4800012B10B504460CD0012380F82832006809
:102A580001F05CFB206801F07DF8002084F8280272
:102A680010BD022010BD90F82822012A10B5044696
:102A78000BD0012280F8282284F82410006801F085
:102A88003FFB002084F8280210BD022010BD70B55D
:102A980011F0800F044601F007004FEA401507D0F7
:102AA80005F1280125440126214485F8296006E01E
:102AB80005F5947125440026214485F829610A61A9
:102AC8004A78CB70C0B2087002B1C881022B04BF2B
:102AD80000230B7194F82832012B09D0012384F8C4
:102AE8002832206801F068F8002084F8280270BDB8
:102AF800022070BD01F0070311F0800F10B54FEAF6
:102B08004312044607D002F128010244014401207F
:102B180082F8290006E002F594710244014400207D
:102B280082F829010B7094F82832012B09D001236F
:102B380084F82832206801F0C0F9002084F82802BF
:102B480010BD022010BD01F0070170B54C01061937
:102B58000025C6F83C2100EB4112C2F84031C2F80A
:102B6800445186F8281186F8295104F594710144D6
:102B7800006801F0EBFA284670BD01F0070100EB90
:102B88004110D0F84401704701F0070170B54C01BD
:102B980005190026EA6300EB411213640123566409
:102BA80085F8281085F8293004F1280101440068C7
:102BB80001F0CCFA304670BD2DE9F04704460068B4
:102BC80001F0AFFA020416D4206801F0AAFA43050E
:102BD80040F194812268B2F8443023F480631B04E6
:102BE8001B0C2046A2F84430FDF7BFFC002120460C
:102BF800FFF739FF82E104F50C762068B0F844301D
:102C08001A04E1D5B0F8441089B211F00F0840F069
:102C1800BB8001F01001038889B29BB269BB23F421
:102C2800E14323F070036FEA43436FEA53439BB2D7
:102C38000380B0F8503094F8282010FA83F000F29E
:102C4800024030F83230E26BC3F309036364134483
:102C5800E3632046FDF77EFC94F82430002BCCD0AB
:102C6800226C002AC9D194F82430216843F08003EB
:102C7800A1F84C3084F82420BFE703F40065ADB216
:102C8800FDB1B0F8503094F8282110FA83F303F21C
:102C98000643314633F83230B4F82E21C3F3090322
:102CA800C4F8443101F036FB2268138823F070031E
:102CB8001B051B0D43F0800313802046FDF73CFCE9
:102CC8009BE71F0499D5038823F070031B051B0D90
:102CD80043F080030380B0F8503094F8282110FAAC
:102CE80083F303F2064333F83230C3F30903C4F81D
:102CF80044318BB1D4F83C1171B1B4F82E2101F0F4
:102D080009FBD4F83C21D4F844311344C4F83C31CD
:102D180029462046FDF716FC2168D4F83801B1F899
:102D2800502011FA82F260B9B2F8063423F4F8435D
:102D38001B041B0CA2F80634B2F806346FEA4343AE
:102D48000EE03E2805D84308C50748BF01339B025B
:102D580008E04309C00608BF03F1FF336FEAC36305
:102D68006FEA53439BB2A2F806340B8823F48043DE
:102D780023F070031B041B0C83F4405343F40043FB
:102D880043F080030B8038E70FFA88F730F827A064
:102D98001FFA8AFA1AF4004F7CD030F8273023F053
:102DA80070031B051B0D43F080034FEA481920F8F8
:102DB800273004EB090191F83431A3B9B0F8503049
:102DC80091F8282110FA83F303F2064333F83250BE
:102DD800C5F30905EDB3B1F82E21D1F83C112B4606
:102DE80001F098FA35E091F8282113B230F8233031
:102DF80013F4804FB0F8503010FA83F30AD003F27E
:102E0800024333F83250C5F309058DB12B46B1F8AA
:102E1800302109E003F2064333F83250C5F30905BF
:102E280035B1B1F832212B46D1F83C1101F072FAD4
:102E380004EB0903226893F8281132F8213023F0B3
:102E4800F0031B051B0D43F4004343F0C00322F8B5
:102E5800213004EB471304EB0901D3F844212A4439
:102E6800C3F84421D1F83C212A44C1F83C21D3F8C5
:102E780040311BB1D1F83801854206D2A144204621
:102E880099F82811FDF75EFB04E091F82811204617
:102E9800FFF759FE1AF0800F3FF4AFAE226832F800
:102EA80027309BB223F4E14323F070036FEA4343D6
:102EB8006FEA53439BB222F82730B2F8503004EB44
:102EC800481812FA83F398F8281003F2024304EB27
:102ED800471733F83120C2F309027A64D8F83C3036
:102EE80098F828101A44C8F83C203B6C204613B9BF
:102EF800FDF730FB81E6FFF747FE7EE6206801F02C
:102F080010F9430408D52268B2F8443023F480430A
:102F18001B041B0CA2F84430206801F002F9870456
:102F280008D52268B2F8443023F400531B041B0C64
:102F3800A2F84430206801F0F4F8C60426D52268C7
:102F4800B2F8403023F004031B041B0CA2F84030F5
:102F5800B2F8403023F008031B041B0CA2F84030E1
:102F680094F86032012B05D1002184F860122046C4
:102F7800FDF7F2FB2046FDF719FB2268B2F8443052
:102F880023F480531B041B0CA2F84430206801F082
:102F9800C8F805051DD52068B0F840309BB243F04D
:102FA8000803A0F84030B0F8443023F400631B0451
:102FB8001B0CA0F84430B0F840309BB243F0040337
:102FC800A0F8403001F0ADF8C00402D42046FDF767
:102FD800DDFA206801F0A5F801062AD52368B3F8C0
:102FE800442022F080021204120CA3F8442094F822
:102FF8006022DAB9B3F8402092B242F00402A3F892
:103008004020B3F8402092B242F00802A3F84020D2
:10301800B3F8543003F0F00301219B0884F86012E0
:10302800C4F864322046FDF797FB02E02046FDF71E
:10303800ADFA206801F075F882050BD52268B2F860
:10304800443023F400731B041B0CA2F844302046C0
:10305800FDF787FA206801F064F8C30508D52268EF
:10306800B2F8443023F480731B041B0CA2F84430DC
:10307800BDE8F08738B5436801F007059D4204466E
:1030880028D80B0608D56B0103F128010344012257
:10309800014483F8292007E04B0103F594710344A8
:1030A8000022014483F8292101238B700D7094F8C4
:1030B80028229A4210D084F82832206800F0B6FFFF
:1030C80025B904F50C71206801F02FF8002084F868
:1030D800280238BD012038BD022038BD38B5436804
:1030E80001F00F029A42044626D801F0070311F0B6
:1030F800800F4FEA431207D002F12801024401442D
:10310800012082F8290006E002F594710244014486
:10311800002082F8290100258D700B7094F8283260
:10312800012B0BD0012384F82832206800F09FFF80
:1031380084F82852284638BD012038BD022038BD01
:1031480011F0800F1BBF01F0070100EB411000EBED
:103158004110283008BF00F5947012B90273C3807B
:1031680004E0012203811B0C027343810020704795
:10317800026803460121C0F86812002083F8600243
:10318800B2F854309BB20B43A2F85430B2F8543022
:103198009BB243F00203A2F854307047294B1A68D7
:1031A800F0B902F4C062B2F5806FD3F8802022F43F
:1031B8008072C3F8802038D11A6822F4C06242F4C1
:1031C80000721A60204A116832224A431F49B2FB32
:1031D800F1F201325969490521D502B3013AF9E7FB
:1031E800B0F5007F26D102F4C062B2F5806FD3F843
:1031F800802042F48072C3F8802020D11A6822F41B
:10320800C06242F400721A600F4A116832224A43BF
:103218000E49B2FBF1F201325969490506D4094B4E
:103228005B6958050BD5032070477047002AF6D014
:10323800013AF1E722F4C06242F480621A60002089
:10324800704700BF007000406400002040420F003B
:103258002DE9F3410446002800F0EC810368DF07FC
:1032680003D423689E0746D491E0A84DAB68EA686A
:1032780003F00C030C2B03D102F00303032B00E033
:10328800082B06D12B689D03EBD56368002BE8D18A
:10329800D0E16368B3F5803F06D0B3F5A02F08D11D
:1032A8002B6843F480232B602B6843F480332B6016
:1032B80008E02A6822F480322A602A6822F48022F0
:1032C8002A6063B1FEF7E0FD06462B689803C8D470
:1032D800FEF7DAFD801B6428F7D90320B7E1FEF773
:1032E800D3FD06462B689903BBD5FEF7CDFD801BA1
:1032F8006428F7D9F1E7854DAB68EA6803F00C0359
:103308000C2B03D102F00303022B00E0042B13D192
:103318002B685A0503D5E368002B00F08B816B6896
:10332800226923F0FE4343EA02636B60784B186816
:10333800FEF762FD58B37DE1E368C3B12B6843F43F
:1033480080732B60FEF7A0FD06462B686F4A5B056D
:1033580005D4FEF799FD801B0228F6D9BDE753680E
:10336800216923F0FE4343EA016353600FE02B68B1
:1033780023F480732B60FEF787FD06462B685F05F4
:1033880005D5FEF781FD801B0228F7D9A5E723683C
:103398001E0703D423685D0729D487E063695B4D62
:1033A80093B1D5F8943043F00103C5F89430FEF793
:1033B8006BFD0646D5F894309807EBD4FEF764FD0C
:1033C800801B0228F6D988E7D5F8943023F001034A
:1033D800C5F89430FEF758FD0646D5F8943099079D
:1033E800D8D5FEF751FD801B0228F6D975E7474D61
:1033F800AB6DDA0040F120810027464E3368DB05CB
:1034080003D5A368012B11D118E0336843F4807306
:103418003360FEF739FD80463368D805F1D4FEF7EE
:1034280033FDC8EB00000228F6D956E7052B0CD16E
:10343800D5F8903043F00403C5F89030D5F89030B3
:1034480043F00103C5F890300CE0D5F8902022F045
:103458000102C5F89020D5F8902022F00402C5F8A2
:10346800902073B1FEF710FD41F288380646D5F872
:10347800903099070ED4FEF707FD801B4045F6D91A
:103488002BE7FEF701FD41F288380646D5F8903063
:103498009A0705D457B1AB6D23F08053AB6505E0AF
:1034A800FEF7F2FC801B4045F0D916E723689B061F
:1034B80002D4E06980BB6BE0A369144D93B1D5F8E1
:1034C800983043F00103C5F89830FEF7DDFC064656
:1034D800D5F898309F07ECD4FEF7D6FC801B02285D
:1034E800F6D9FAE6D5F8983023F00103C5F89830F4
:1034F800FEF7CAFC0646D5F898309807D9D5FEF7E6
:10350800C3FC801B0228F6D9E7E600BF0010024082
:103518007C010020007000404E4B9A6802F00C02BB
:103528000C2A1D4658D01B68022823F080732B6094
:103538003CD1FEF7A9FC06462B684648990129D4D8
:10354800C268454BA16A134043EA0121236A626AB3
:103558000B43E16A013A43EAC16343EA0211236B70
:103568005B08013B41EA4352636B5B08013B42EA5B
:103578004363C360036843F080730360C36843F028
:103588008073C360FEF780FC04462B689A0107D558
:1035980000205CE0FEF778FC801B0228CCD99CE672
:1035A800FEF772FC001B0228EFD996E6EB6823F0C1
:1035B8000303EB60EB6823F0887323F48033EB603C
:1035C800FEF762FC04462B689B01E1D5FEF75CFC24
:1035D800001B0228F7D980E6012838D0DB68226A68
:1035E80003F00301914225D1616A03F0F002013929
:1035F800B2EB011F1ED1A16A03F4FE42B2EB012F08
:1036080018D1E16A03F07842B2EBC16F12D1226B94
:10361800520803F4C001013AB1EB425F0AD1626B70
:103628005208013A03F0C063B3EB426F14BF0120A4
:1036380000200CE001200AE0AB6D43F08053AB653D
:10364800AB6D03F080530193019B0127D5E602B0CF
:10365800BDE8F081001002400C809F0114498B687E
:1036680003F00C03042B1ED08B6803F00C03082B0B
:1036780019D08B6803F00C030C2B16D1C868CA68E4
:10368800C868C2F30312C0F30620531C094AB2FBF0
:10369800F3F202FB00F3C868C0F341600130400058
:1036A800B3FBF0F07047034870470020704700BF35
:1036B800001002400024F4002DE9F8430E460546A8
:1036C80010B90120BDE8F883694A136803F00F03B5
:1036D8008B4204D3296811F001070BD165E0136808
:1036E80023F00F030B431360136803F00F03994291
:1036F800E7D1EFE76B685F4C032B26D123689F0166
:10370800DFD5E068E268E068C2F30312C0F3062080
:10371800531C594AB2FBF3F202FB00F3E268C2F30E
:10372800416201325200B3FBF2F3544A934201D88A
:1037380000271FE04F4B9B6813F0F00F13D088074A
:10374800F6D5AB68002BF3D10DE0022B236802D12C
:1037580013F4003F01E013F4806FB2D0FFF77EFF4F
:10376800464B9842E4D9A36823F0F00343F0800362
:10377800A3608027A36823F003026B681343A36048
:10378800FEF782FB41F288398046A3686A6803F035
:103798000C03B3EB820F08D0FEF776FBC8EB0000F2
:1037A8004845F2D90320BDE8F8832A68910716D561
:1037B800304B12F0040F1EBF996841F4E061996024
:1037C800120741BF9A6822F47C5242F4E0629A6080
:1037D8009A6822F0F001AA680A439A6006E0802FEE
:1037E80001BF244A936823F0F0039360204C2368B8
:1037F80003F00F039E420BD329681E4C11F0040FEF
:103808001BD0A36823F4E062EB681343A36014E0C1
:10381800236823F00F0333432360FEF735FB41F29F
:1038280088380746236803F00F039E42E4D0FEF76A
:103838002BFBC01B4045F5D9B4E70B0706D5A36899
:103848002A6923F4605343EAC203A360FFF706FF23
:10385800A3680B4AC3F30313D35C03F01F03D840D8
:10386800084B1860084B1868BDE8F843FEF7C4BA5F
:1038780000200240001002400024F40000B4C404F8
:10388800C3450008640000207C0100202DE9F341B5
:103898000446006810F4002054D0994DAB6DD80050
:1038A8000AD4AB6D43F08053AB65AB6D03F0805326
:1038B8000193019B012600E00026924F3B6843F4E8
:1038C80080733B60FEF7E0FA80463B68D90506D472
:1038D800FEF7DAFAC8EB00000228F6D92CE0D5F892
:1038E8009030874A13F4407314D0216C8B4211D066
:1038F800D2F89030D2F8901041F48031C2F890108C
:10390800D2F8901023F4407321F48031C2F890105B
:10391800C2F89030DA0740F1E680FEF7B5FA41F2D6
:1039280088380746D5F890309B0700F1DC80FEF711
:10393800ABFAC01B4045F5D903201EB1AB6D23F08F
:103948008053AB652368DE0708D56D4DD5F8882010
:1039580022F0030162680A43C5F888209D0708D54C
:10396800674DD5F8882022F00C01A2680A43C5F8F3
:103978008820590708D5624DD5F8882022F03001F3
:10398800E2680A43C5F888201A0708D55C4DD5F8BF
:10399800882022F0C00122690A43C5F888209F06C2
:1039A80008D5574DD5F8882022F4406162690A434A
:1039B800C5F888205E0608D5514DD5F8882022F430
:1039C8004051A2690A43C5F888201D0608D54C4D08
:1039D800D5F8882022F44041E2690A43C5F88820D6
:1039E800D90508D5464DD5F8882022F44031226AF9
:1039F8000A43C5F888209A0508D5414DD5F888208E
:103A080022F44021626A0A43C5F888205F050FD571
:103A18003B49A56AD1F8882022F440122A43C1F80C
:103A28008820B5F5801F02BFCA6842F48012CA60B8
:103A38001E050FD53249E56AD1F8882022F44002E4
:103A48002A43C1F88820B5F5800F02BFCA6842F43E
:103A58008012CA60DD040FD52949256BD1F888206A
:103A680022F040722A43C1F88820B5F1807F02BF56
:103A7800CA6842F48012CA6099040FD52049656B60
:103A8800D1F8882022F040622A43C1F88820B5F195
:103A9800006F02BFCA6842F48012CA605A040FD588
:103AA8001749A56BD1F8882022F040622A43C1F853
:103AB8008820B5F1006F02BFCA6842F48012CA605C
:103AC8001B041AD50E4AE16BD2F8883023F0405314
:103AD8000B43B1F1805FC2F888300ED1D36843F44C
:103AE8008033D36009E0D5F8903023F44072236C1A
:103AF8001343C5F8903000201FE702B0BDE8F081FD
:103B08000010024000700040104B9A6B42F4807223
:103B18009A639A6B22F480729A6390E80C001A43B5
:103B280083681A43C3681343026943EA0242084B95
:103B38005A601A68416922F4FE4242EA01221A6078
:103B48001A6842F060021A60704700BF0010024015
:103B580000200040B0F840309BB243F43F4343F0AC
:103B68008003A0F8403000207047B0F8403023F4BC
:103B78007E535B045B0CA0F840300020704784B093
:103B880010B503AC84E80E0000220123A0F84030F1
:103B9800A0F84020A0F84420A0F85020B0F8403009
:103BA800BDE810409BB243F43F4343F08003A0F8C4
:103BB800403004B01046704770B50C7830F82420B7
:103BC80022F4EC42034622F07002C8781204120C68
:103BD80003280DD8DFE800F00209070542F4007257
:103BE80001E042F4C062002003E042F48062FAE798
:103BF800012042F4004242F0800223F824200C788D
:103C080025B233F8252092B222F4E04222F0700265
:103C1800224342F4004242F0800223F825200C7B24
:103C28000A78002C7FD14D78CC88082665B3B3F884
:103C38005050ADB205F5806516FB025224F0010420
:103C4800A4B29C520C7833F8242056060BD533F8CE
:103C5800242022F0F0021205120D42F4004242F034
:103C6800C00223F82420CA78097809B2012A33F857
:103C7800212000F0C78022F4E04222F04002120422
:103C8800120C82F0200211E1B3F85050ADB205F2E7
:103C9800044516FB025224F00104A4B2D452B3F82E
:103CA80050400A780D69A4B204F2064416FB024299
:103CB8004DB9D45A24F4F8442404240CD452D45AC8
:103CC8006FEA44440EE03E2D05D86C08ED0748BF66
:103CD8000134A40208E06C09EE0608BF04F1FF34C1
:103CE8006FEAC4646FEA5444A4B2D4520C7833F82F
:103CF800242055040BD533F8242022F0F0021205B5
:103D0800120D42F4404242F0800223F82420097840
:103D180033F8212022F4804222F070021204120C9F
:103D280082F44052C2E014B2082633F8242022F468
:103D3800F8721205120D42F4014242F0800223F893
:103D48002420B3F850400D78A4B204F5806416FB23
:103D580005450C8924F00104A4B2EC52B3F85020B4
:103D68000C7892B202F2044216FB04244A8922F02B
:103D7800010292B2E2520C784A7824B2002A46D163
:103D880033F8242052040BD533F8242022F0F00213
:103D98001205120D42F4404242F0800223F824201A
:103DA8000C7833F8242056060BD533F8242022F05B
:103DB800F0021205120D42F4004242F0C00223F84C
:103DC80024200C7833F8242022F0F0021205120D7A
:103DD80042F4004242F0C00223F824200C7833F861
:103DE800242022F4804222F070021204120C82F481
:103DF800405242F4004242F0800223F8242009781D
:103E080033F8212022F0C0021205120D4EE033F8DB
:103E1800242055040BD533F8242022F0F002120593
:103E2800120D42F4404242F0800223F824200C781C
:103E380033F8242052060BD533F8242022F0F00260
:103E48001205120D42F4004242F0C00223F8242069
:103E58000C7833F8242022F0F0021205120D42F4F7
:103E6800404242F0800223F824200C78CA7824B219
:103E7800012A33F824201DBF22F4E04222F0400238
:103E8800120422F0C00215BF120C120582F02002A3
:103E9800120D42F4004242F0800223F824200978EF
:103EA80033F8212022F0F0029204920C42F40042EE
:103EB80042F0800223F8212070BD10B50B780C7BEE
:103EC8004A781BB21CBB82B130F8232052065BD55E
:103ED80030F8232022F0F0021205120D42F40042BD
:103EE80042F0C00220F823204EE030F8232054048A
:103EF80040F18D8030F8232022F0F0021205120DD7
:103F080042F4404242F0800220F823207FE0002A59
:103F180042D130F8232052040BD530F8232022F068
:103F2800F0021205120D42F4404242F0800220F8DD
:103F380023200A7830F822305C060BD530F822307E
:103F480023F0F0031B051B0D43F4004343F0C003AB
:103F580020F822300A7830F8223023F0F0031B05CD
:103F68001B0D43F4004343F0C00320F822300A78C5
:103F780030F8223023F0F0039B049B0C43F40043F9
:103F880043F0800320F822300A7830F8223023F0FA
:103F9800C0031B051B0D41E030F8232052040BD54C
:103FA80030F8232022F0F0021205120D42F44042AC
:103FB80042F0800220F823200A7830F822305B068D
:103FC8000BD530F8223023F0F0031B051B0D43F40A
:103FD800004343F0C00320F822300A7830F822303A
:103FE80023F0F0031B051B0D43F4404343F080030B
:103FF80020F822300A7830F8223023F0C0031B055D
:104008001B0D43F4004343F0800320F822300A7864
:1040180030F8223023F0F0039B049B0C43F4004358
:1040280043F0800320F82230002010BD0A784B7836
:1040380012B253B130F8223023F4E04323F04003A6
:104048001B041B0C83F0100309E030F8223023F422
:10405800804323F070031B041B0C83F4805343F448
:10406800004343F0800320F82230002070470B7B88
:10407800002B43D10A784B7812B2F3B130F82230D2
:104088005B060BD530F8223023F0F0031B051B0D1F
:1040980043F4004343F0C00320F82230CB78012BCF
:1040A8002CD00A7830F8223023F4E04323F0400380
:1040B8001B041B0C83F020031AE030F822305B0449
:1040C8000BD530F8223023F0F0031B051B0D43F409
:1040D800404343F0800320F822300A7830F8223039
:1040E80023F4804323F070031B041B0C83F4405318
:1040F80043F4004343F0800320F822300020704747
:1041080011B98023A0F84C3000207047B0F858301F
:104118006FEA43436FEA53439BB2A0F8583000203C
:104128007047B0F8440080B270470020704702F52D
:1041380080620133104423F001030B44421A994270
:1041480003D0088888520231F9E7704770B50E46E7
:104158004978B369326901290446307B61D19342B9
:1041680085BF9B1AB3610022134698BFB2619DB206
:1041780078B92B46F28871692046FFF7D8FFB4F862
:10418800503032789BB203F2024303EBC203E5528C
:104198003BE031780BB2204634F82330B4F8502095
:1041A80013F0400F92B24FF0080315BF02F2064217
:1041B80002F2024213FB012313FB012315BFE55250
:1041C800E5527289328971692B46FFF7B0FF73781F
:1041D80032785BB912B234F8223023F0F0031B05B1
:1041E8001B0D43F4004343F0C0030CE0012B0CD13A
:1041F80012B234F8223023F0F0031B051B0D43F4F0
:10420800404343F0800324F82230327834F82230D7
:1042180023F4E04323F040031B041B0C83F030031A
:1042280070E093428BBF9B1A0022B361B26188BFD2
:104238001346327840B321BBB4F8501089B201F26A
:10424800024101EBC2014BB9625A22F4F84212044E
:10425800120C6252625A6FEA42420EE03E2B05D8B7
:104268005A08D80748BF0132920208E05A09DD0609
:1042780008BF02F1FF326FEAC2626FEA524292B29D
:1042880062527178327839BBB4F8501089B201F2B1
:10429800064101EBC2025BB9135B23F4F8431B042C
:1042A8001B0C1353135B6FEA43436FEA53431CE041
:1042B8003E2B05D85908D80748BF0131890208E0C4
:1042C8005909DB0608BF01F1FF316FEAC1616FEAE6
:1042D800514189B211530AE0012908D1B4F85010AC
:1042E80089B201F2064101EBC2029BB21353327844
:1042F80034F8223023F4804323F070031B041B0C92
:1043080083F4405343F4004343F0800324F82230FD
:10431800002070BD02F58062F0B510445E080D46BD
:104328003246471A7C19023542B12488A4B205F8EE
:10433800024C240A05F8014C013AF3E7DB0744BFB5
:1043480030F8163001F81630F0BD000070B50F4E89
:104358000F4D761BB61018BF002405D0013455F850
:10436800043B9847A642F9D10A4E0B4D761B00F044
:10437800D9F8B61018BF002406D0013455F8043B0C
:104388009847A642F9D170BD70BD00BFF845000836
:10439800F845000800460008F845000870B484078E
:1043A80046D0541E002A41D0CDB2034602E0621E18
:1043B800E4B3144603F8015B9A07F8D1032C2ED90D
:1043C800CDB245EA05250F2C45EA054519D903F173
:1043D80010022646103E0F2E42F8105C42F80C5C84
:1043E80042F8085C42F8045C02F11002F2D8A4F129
:1043F800100222F00F0204F00F041032032C1344B1
:104408000DD91E462246043A032A46F8045BFAD818
:10441800221F22F003020432134404F003042CB1D7
:10442800C9B21C4403F8011BA342FBD170BC7047FE
:1044380014460346C2E700BF024B13B1024800F01E
:1044480005B87047000000006144000800230146D9
:104458001A46184600F014B838B5074D074C2C1BFF
:10446800A41005D0013C55F8043D9847002CF9D11B
:10447800BDE8384000F05CB8044600080046000873
:104488002DE9F047254C2568D5F848410646884669
:1044980092469946C4B360681F2817DC431C76B15E
:1044A80004EB80050122C5F888A0D4F88811824061
:1044B8001143022EC4F88811C5F808911ED00230A5
:1044C800636044F820800020BDE8F087144B03B3F4
:1044D8004FF4C870AFF300800446D0B1D5F8483126
:1044E800002780E88800C5F8484138460123C4F809
:1044F8008871C4F88C71002EE1D0D1E7D4F88C1102
:104508000A43C4F88C21DAE705F5A674C5F84841D2
:10451800C1E74FF0FF30BDE8F08700BFF445000861
:1045280000000000F8B500BFF8BC08BC9E46704704
:0C453800F8B500BFF8BC08BC9E467047F8
:10454400080100002063687269737469616E2D6DDF
:10455400617274792E63682F656C65637472696324
:104564007468696E67732F43414E6265536572695F
:10457400616C000000000201024F70656E6C696797
:104584006874204C6162730043414E61626C653211
:104594002043414E626553657269616C20466972BD
:1045A4006D776172650043444320436F6E666967AB
:1045B4000043444320496E7465726661636500007C
:1045C40000000000000000010203040607080900BF
:1045D40001020304050607080C10141820304000DB
:1045E40001020304050607080C10141820304000CB
:0445F400A8010020FA
:0845F80041440008FD01000828
:04460000D9010008D4
:10460400B5070008AF070008FD0700081D080008EB
:10461400B5090008C1090008390A0008550A00084C
:10462400F5090008710A00088D0A0008000000005E
:10463400040309041201000202020040D0167E1194
:1046440000020102030100001A0300000000000040
:104654000000000000000000000000000000000056
:10466400000000000024F4000100000009024300DF
:1046740002010080FA09040000010202010005247D
:10468400001001052401000104240202052406008F
:10469400010705820308001009040100020A000052
:1046A40000070501024000000705810240000000E8
:1046B4001B1D0008D91C0008191C0008000000007C
:1046C400571B0008DB1B0008B11B0008000000009A
:1046D40000000000000000008D1B0008811B000882
:1046E400991B0008A51B00080A06000200000040F0
:1046F4000100000009074300020104C0320904005C
:10470400000102020100052400100105240100013A
:104714000424020205240600010705820308001090
:1047240009040100020A000000070501024000001C
:1047340007058102400000000902430002010080D5
:10474400FA09040000010202010005240010010519
:104754002401000104240202052406000107058245
:104764000308001009040100020A00000007050103
:104774000240000007058102400000001000000014
:104784000100000000000000000000000000000024
:104794000000000001000000000000000000000014
:1047A400000000000000000000000000940400204D
:1047B400FC0400206405002000000000000000004C
:1047C40000000000000000000000000000000000E5
:1047D40000000000000000000000000000000000D5
:1047E40000000000000000000000000000000000C5
:1047F40000000000000000000000000000000000B5
:1048040000000000000000000000000000000000A4
:104814000000000000000000000000000000000094
:104824000000000000000000000000000000000084
:104834000000000000000000000000000000000074
:104844000000000000000000000000000000000064
:1048540001000000000000000E33CDAB34126DE601
:10486400ECDE05000B00000000000000000000006A
:104874000000000000000000000000000000000034
:104884000000000000000000000000000000000024
:104894000000000000000000000000000000000014
:1048A4000000000000000000000000000000000004
:04000005080013A933
:00000001FF
